:100000000C942A000C943F000C943F000C943F0089
:100010000C943F000C943F000C943F000C943F0064
:100020000C943F000C943F000C943F000C943F0054
:100030000C943F000C943F000C943F000C943F0044
:100040000C943F000C943F000C943F000C943F0034
:100050000C943F0011241FBECFE5D8E0DEBFCDBF1A
:1000600011E0A0E6B0E0E8EEF3E202C005900D92E8
:10007000A039B107D9F70E940D0E0C94F2110C941F
:100080000000EF92FF920F931F937B018C0120E001
:1000900030E040E05FE40E94ED0388238CF0C8016B
:1000A000B70120E030E040E05FE40E94B9010E9427
:1000B0004D049B01AC01205030404040504806C0E8
:1000C000C801B7010E944D049B01AC01B901CA01EE
:1000D0001F910F91FF90EF900895A0E0B0E0E3E74B
:1000E000F0E00C94BB11DC012B01FA019C919230E1
:1000F00008F439C1EB018881823008F433C19430AF
:1001000069F4843009F02FC111969C91119789816F
:10011000981709F428C1AFE6B0E025C1843009F48E
:1001200021C18230A9F4923009F01DC19A01AD01BC
:1001300088E0EA010990AE01E90109929E0181502F
:10014000C1F7E201898111969C918923818308C1BD
:10015000923009F407C112962D903C901397EB0151
:100160008A819B811496AD90BD90CD90DC901797BD
:10017000EC80FD800E811F819101281B390BB90194
:1001800037FF04C066277727621B730B6032710547
:100190000CF061C0121613066CF537014801062EEB
:1001A00004C096948794779467940A94D2F721E0D8
:1001B00030E040E050E004C0220F331F441F551FC1
:1001C0006A95D2F721503040404050402E213F21C7
:1001D00040235123211531054105510521F021E02E
:1001E00030E040E050E079018A01E628F72808294C
:1001F00019293CC0232BD1F1260E371E35014601AB
:10020000062E04C096948794779467940A94D2F744
:1002100021E030E040E050E004C0220F331F441FD3
:10022000551F6A95D2F721503040404050402A2156
:100230003B214C215D21211531054105510521F05E
:1002400021E030E040E050E059016A01A628B728DB
:10025000C828D9280BC0821593052CF01C01AA24AC
:10026000BB24650103C0EE24FF24870111969C91F5
:10027000D20111968C91981709F445C0992339F051
:10028000A80197012A193B094C095D0906C0A6017E
:1002900095012E193F09400B510B57FD08C01182E3
:1002A0003382228224833583468357831DC081E0B5
:1002B00081833382228288279927DC01821B930B5A
:1002C000A40BB50B84839583A683B7830DC0220F3F
:1002D000331F441F551F24833583468357838281F0
:1002E000938101979383828324813581468157814D
:1002F000DA01C9010197A109B1098F5F9F4FAF4F83
:10030000BF4328F30BC0918333822282EA0CFB1C8B
:100310000C1D1D1DE482F5820683178383E0808314
:10032000248135814681578157FF1AC0C901AA2708
:1003300097FDA095BA2F81709070A070B0705695FF
:10034000479537952795822B932BA42BB52B848328
:100350009583A683B7838281938101969383828359
:10036000DF0101C0D201CD01CDB7DEB7E2E10C94CF
:10037000D711A0E2B0E0EFEBF1E00C94C711698374
:100380007A838B839C832D833E834F835887E9E058
:10039000EE2EF12CEC0EFD1ECE010196B7010E944F
:1003A0003E068E010F5E1F4FCE010596B8010E94DA
:1003B0003E068A8991E089278A8BC701B801AE0180
:1003C000475E5F4F0E946D000E946905A096E6E0BF
:1003D0000C94E311A0E2B0E0E0EFF1E00C94C7115F
:1003E00069837A838B839C832D833E834F835887D5
:1003F000F9E0EF2EF12CEC0EFD1ECE010196B701B7
:100400000E943E068E010F5E1F4FCE010596B80179
:100410000E943E06C701B801AE01475E5F4F0E94D1
:100420006D000E946905A096E6E00C94E311A0E23D
:10043000B0E0EDE1F2E00C94BB1169837A838B8329
:100440009C832D833E834F835887CE010196BE0146
:10045000675F7F4F0E943E06CE010596BE016F5E2C
:100460007F4F0E943E069985923088F089898230BC
:10047000C8F0943019F4823051F404C0843029F467
:10048000923081F48FE690E0C6C0923049F420E0CB
:100490009A858A89981321E02A87CE010996BBC0E4
:1004A000823049F420E09A858A89981321E02A8BCA
:1004B000CE014196B0C02D843E844F8458886D880B
:1004C0007E888F88988CEE24FF248701AA24BB2481
:1004D000650140E050E060E070E0E0E0F0E0C10184
:1004E00081709070892BE9F0E60CF71C081D191D2E
:1004F0009A01AB012A0D3B1D4C1D5D1D80E090E073
:10050000A0E0B0E0E614F7040805190520F481E046
:1005100090E0A0E0B0E0BA01A901480F591F6A1F9E
:100520007B1FAA0CBB1CCC1CDD1C97FE08C081E005
:1005300090E0A0E0B0E0A82AB92ACA2ADB2A3196C6
:10054000E032F10549F0660C771C881C991C569422
:10055000479437942794C3CFFA85EA892B893C893D
:100560008B859C85280F391F2E5F3F4F17C0CA010E
:1005700081709070892B61F016950795F794E79438
:1005800080E090E0A0E0B0E8E82AF92A0A2B1B2BD3
:1005900076956795579547952F5F3F4F77FDE7CF46
:1005A0000CC0440F551F661F771F17FD4160EE0CEE
:1005B000FF1C001F111F21503040403090E05907B0
:1005C00090E0690790E4790760F32B8F3C8FDB01A3
:1005D000CA018F779070A070B07080349105A1052A
:1005E000B10561F447FD0AC0E114F10401051105EC
:1005F00029F0405C5F4F6F4F7F4F40781A8EFE1797
:1006000011F081E08A8F4D8F5E8F6F8F78A383E02A
:10061000898FCE0149960E946905A096E2E10C946B
:10062000D711A8E1B0E0E7E1F3E00C94C3116983CE
:100630007A838B839C832D833E834F835887B9E0D5
:10064000EB2EF12CEC0EFD1ECE010196B7010E949F
:100650003E068E010F5E1F4FCE010596B8010E9427
:100660003E062985223008F47EC03989323010F4E4
:10067000B8017CC08A859A8989278A87243011F03D
:10068000223031F4231709F06EC06FE670E06EC0BF
:10069000343039F41D861E861F86188A1C861B86F8
:1006A00004C0323021F484E08987B7015FC02B8514
:1006B0003C858B899C89281B390B3C872B87ED84D3
:1006C000FE840F851889AD88BE88CF88D88CEA143F
:1006D000FB040C051D0540F4EE0CFF1C001F111F50
:1006E000215030403C872B8720E030E040E050E054
:1006F00080E090E0A0E0B0E460E070E0EA14FB0489
:100700000C051D0540F0282B392B4A2B5B2BEA18D2
:10071000FB080C091D09B695A79597958795EE0CD2
:10072000FF1C001F111F6F5F7F4F6F31710531F785
:10073000DA01C9018F779070A070B0708034910594
:10074000A105B10561F427FD0AC0E114F10401051A
:10075000110529F0205C3F4F4F4F5F4F20782D87C8
:100760003E874F87588BBE01675F7F4FCB010E944A
:1007700069056896EAE00C94DF11A8E1B0E0E3ECCB
:10078000F3E00C94C71169837A838B839C832D8358
:100790003E834F83588789E0E82EF12CEC0EFD1E36
:1007A000CE010196B7010E943E068E010F5E1F4FDB
:1007B000CE010596B8010E943E068985823040F040
:1007C0008989823028F0C701B8010E94B60601C0AD
:1007D0008FEF6896E6E00C94E311A8E1B0E0E3EF58
:1007E000F3E00C94C71169837A838B839C832D83F8
:1007F0003E834F83588789E0E82EF12CEC0EFD1ED6
:10080000CE010196B7010E943E068E010F5E1F4F7A
:10081000CE010596B8010E943E068985823040F0DF
:100820008989823028F0C701B8010E94B60601C04C
:100830008FEF6896E6E00C94E311A8E1B0E0E3E204
:10084000F4E00C94C71169837A838B839C832D8396
:100850003E834F83588789E0E82EF12CEC0EFD1E75
:10086000CE010196B7010E943E068E010F5E1F4F1A
:10087000CE010596B8010E943E068985823040F07F
:100880008989823028F0C701B8010E94B60601C0EC
:1008900081E06896E6E00C94E311ACE0B0E0E3E5BB
:1008A000F4E00C94CB1169837A838B839C83CE0113
:1008B0000196BE016B5F7F4F0E943E068D818230A4
:1008C00061F1823050F1843021F48E81882351F11E
:1008D0002EC02F81388537FD20C06E812F31310524
:1008E0001CF06623F9F023C08EE190E0821B930B8D
:1008F00029853A854B855C8504C056954795379583
:1009000027958A95D2F76623B1F05095409530959A
:1009100021953F4F4F4F5F4F0EC020E030E040E049
:1009200050E009C02FEF3FEF4FEF5FE704C020E03A
:1009300030E040E050E8B901CA012C96E2E00C94A6
:10094000E711A8E0B0E0E7EAF4E00C94C3117B0102
:100950008C01611571058105910519F482E0898387
:1009600060C083E089838EE1C82ED12CDC82CB82EB
:10097000ED82FE820F831887C801B7010E941A0515
:10098000FC013197F7FF3BC0222733272E1B3F0B7B
:1009900057016801022E04C0D694C794B794A79457
:1009A0000A94D2F740E050E060E070E081E090E02F
:1009B000A0E0B0E004C0880F991FAA1FBB1F2A95B2
:1009C000D2F70197A109B1098E219F21A023B1235C
:1009D0000097A105B10521F041E050E060E070E032
:1009E0004A295B296C297D294D835E836F83788733
:1009F0008EE190E08E1B9F0B9C838B8312C03097FF
:100A000081F00E2E04C0EE0CFF1C001F111F0A9473
:100A1000D2F7ED82FE820F831887CE1ADF0ADC82BE
:100A2000CB821A82CE0101960E9469052896EAE0DF
:100A30000C94DF11EF92FF920F931F937B018C01B7
:100A400080E0E81680E0F80681E0080780E01807FB
:100A500088F48FEFE816F1040105110531F028F054
:100A600088E090E0A0E0B0E017C080E090E0A0E077
:100A7000B0E012C080E0E81680E0F80680E00807E9
:100A800081E0180728F088E190E0A0E0B0E004C021
:100A900080E190E0A0E0B0E020E230E040E050E013
:100AA000281B390B4A0B5B0B04C016950795F7946E
:100AB000E7948A95D2F7F701E958FF4F8081281B08
:100AC000310941095109C9011F910F91FF90EF9020
:100AD0000895DF92EF92FF920F931F93FC01E48041
:100AE000F58006811781D1808081823048F480E0D2
:100AF00090E0A0E1B0E0E82AF92A0A2B1B2BA5C060
:100B0000843009F49FC0823021F4EE24FF24870151
:100B100005C0E114F1040105110519F4E0E0F0E06D
:100B200096C0628173819FEF623879070CF05BC0D9
:100B300022E83FEF261B370B2A3131052CF020E04D
:100B400030E040E050E02AC0B801A701022E04C006
:100B500076956795579547950A94D2F781E090E08E
:100B6000A0E0B0E004C0880F991FAA1FBB1F2A9500
:100B7000D2F70197A109B1098E219F21A023B123AA
:100B80000097A105B10521F081E090E0A0E0B0E080
:100B90009A01AB01282B392B4A2B5B2BDA01C901B7
:100BA0008F779070A070B07080349105A105B10569
:100BB00039F427FF09C0205C3F4F4F4F5F4F04C0FF
:100BC000215C3F4F4F4F5F4FE0E0F0E02030A0E06E
:100BD0003A07A0E04A07A0E45A0710F0E1E0F0E08D
:100BE00079018A0127C06038710564F5FB01E1587D
:100BF000FF4FD801C7018F779070A070B07080341C
:100C00009105A105B10539F4E7FE0DC080E490E03F
:100C1000A0E0B0E004C08FE390E0A0E0B0E0E80E18
:100C2000F91E0A1F1B1F17FF05C016950795F7949D
:100C3000E794319687E016950795F794E7948A959F
:100C4000D1F705C0EE24FF248701EFEFF0E06E2F0F
:100C5000679566276795902F9F77D794DD24D79463
:100C60008E2F8695492F462B582F5D29B701CA0133
:100C70001F910F91FF90EF90DF900895FC01DB0131
:100C8000408151812281622F6F7770E0221F2227DD
:100C9000221F9381892F880F822B282F30E0991FE4
:100CA0009927991F11969C93119721153105A9F544
:100CB000411551056105710511F482E037C082E8E4
:100CC0009FEF13969C938E9312979A01AB0167E066
:100CD000220F331F441F551F6A95D1F783E08C9371
:100CE0000DC0220F331F441F551F12968D919C91EA
:100CF0001397019713969C938E931297203080E060
:100D0000380780E0480780E4580758F314962D937D
:100D10003D934D935C93179708952F3F310579F4D8
:100D2000411551056105710519F484E08C9308950E
:100D300064FF03C081E08C9312C01C9210C02F5737
:100D4000304013963C932E93129783E08C9387E068
:100D5000440F551F661F771F8A95D1F7706414964C
:100D60004D935D936D937C93179708951F93DC01CA
:100D7000FB019C91923008F447C08081823008F4D6
:100D800043C0943051F411961C91843099F58181BF
:100D9000682F70E0611B71093FC0843021F09230F0
:100DA00031F48230B9F18181882389F12DC0119607
:100DB0001C9111978230F1F081811817D9F41296A5
:100DC0002D913C911397828193818217930794F020
:100DD00028173907BCF014968D919D910D90BC9108
:100DE000A02D2481358146815781281739074A076C
:100DF0005B0718F4112341F00AC082179307A40778
:100E0000B50740F4112319F061E070E005C06FEF01
:100E10007FEF02C060E070E0CB011F910895DF9387
:100E2000CF93CDB7DEB72F970FB6F894DEBF0FBEC6
:100E3000CDBF8F8780E060E040E00E94800B80E0C3
:100E400061E040E00E94800B82E06F850E94920C7E
:100E500080E062E041E00E94800B80E090E0A0E052
:100E6000B0E48B879C87AD87BE876B857C858D853D
:100E70009E8520E030E04AEF54E40E941702DC0136
:100E8000CB018F839887A987BA876F8178858985F9
:100E90009A8520E030E040E85FE30E941D0488234B
:100EA0002CF481E090E09E838D833FC06F81788534
:100EB00089859A8520E03FEF4FE757E40E94BD0304
:100EC00018164CF56B857C858D859E8520E030E07D
:100ED00040E251E40E941702DC01CB01BC01CD01CC
:100EE0000E944100DC01CB019E838D830FC088EC02
:100EF00090E09C838B838B819C810197F1F79C838D
:100F00008B838D819E8101979E838D838D819E81B0
:100F1000009769F714C06F81788589859A850E944A
:100F20004100DC01CB019E838D838D819E819A835C
:100F3000898389819A810197F1F79A83898380E077
:100F400062E040E00E94800B2F960FB6F894DEBF5F
:100F50000FBECDBFCF91DF910895DF93CF93CDB773
:100F6000DEB72F970FB6F894DEBF0FBECDBF8F87C9
:100F700080E060E041E00E94800B80E061E040E0C2
:100F80000E94800B82E06F850E94920C80E062E0FC
:100F900041E00E94800B80E090E0A0E0B0E48B870D
:100FA0009C87AD87BE876B857C858D859E8520E07F
:100FB00030E04AEF54E40E941702DC01CB018F833A
:100FC0009887A987BA876F81788589859A8520E077
:100FD00030E040E85FE30E941D0488232CF481E0A8
:100FE00090E09E838D833FC06F81788589859A8547
:100FF00020E03FEF4FE757E40E94BD0318164CF581
:101000006B857C858D859E8520E030E040E251E453
:101010000E941702DC01CB01BC01CD010E944100FE
:10102000DC01CB019E838D830FC088EC90E09C8314
:101030008B838B819C810197F1F79C838B838D81BE
:101040009E8101979E838D838D819E81009769F794
:1010500014C06F81788589859A850E944100DC01E2
:10106000CB019E838D838D819E819A838983898123
:101070009A810197F1F79A83898380E062E040E0EA
:101080000E94800B2F960FB6F894DEBF0FBECDBF27
:10109000CF91DF910895DF93CF93CDB7DEB72E9731
:1010A0000FB6F894DEBF0FBECDBF80E090E0A0E2A7
:1010B000B2E48B879C87AD87BE876B857C858D85E9
:1010C0009E8520E030E04AEF54E40E941702DC01E4
:1010D000CB018F839887A987BA876F8178858985A7
:1010E0009A8520E030E040E85FE30E941D048823F9
:1010F0002CF481E090E09E838D833FC06F817885E2
:1011000089859A8520E03FEF4FE757E40E94BD03B1
:1011100018164CF56B857C858D859E8520E030E02A
:1011200040E251E40E941702DC01CB01BC01CD0179
:101130000E944100DC01CB019E838D830FC088ECAF
:1011400090E09C838B838B819C810197F1F79C833A
:101150008B838D819E8101979E838D838D819E815E
:10116000009769F714C06F81788589859A850E94F8
:101170004100DC01CB019E838D838D819E819A830A
:10118000898389819A810197F1F79A83898388E31A
:101190000E940F078CE00E940F0781E00E940F075A
:1011A0002E960FB6F894DEBF0FBECDBFCF91DF9164
:1011B0000895DF93CF9300D00F92CDB7DEB79B8316
:1011C0008A8319820EC08981282F30E08A819B8111
:1011D000FC01E20FF31F80810E94AD0789818F5FC0
:1011E00089838981282F30E08A819B81FC01E20F6D
:1011F000F31F8081882339F78A819B81982F82E0B1
:10120000692F0E94920C0F900F900F90CF91DF9159
:101210000895DF93CF9300D00F92CDB7DEB78A83C6
:101220006B838A81882319F48B81898306C08A8124
:10123000813019F48B81805C8983898180580E9478
:101240000F070F900F900F90CF91DF910895DF93CC
:10125000CF93CDB7DEB727970FB6F894DEBF0FBE9A
:10126000CDBF9C838B836D834E832F831A828D81A8
:10127000882F90E0880F991F880F991F880F991F5A
:101280008A838A81805C0E940F0719820EC089813F
:10129000282F30E08B819C81FC01E20FF31F8081BD
:1012A0000E94AD0789818F5F89838981883078F3B7
:1012B0008E816F810E9409098D810E94AD0727965A
:1012C0000FB6F894DEBF0FBECDBFCF91DF9108956A
:1012D000EF92FF920F931F93DF93CF93CDB7DEB7BB
:1012E00028970FB6F894DEBF0FBECDBF6D837E8307
:1012F0008F83988781E090E0A0E0B0E089839A83B3
:10130000AB83BC838D819E81AF81B8850097A10599
:10131000B105D1F580E30E94AD076BC089819A8148
:10132000AB81BC812AE030E040E050E0BC01CD015F
:101330000E9466117B018C018D819E81AF81B885F1
:101340002AE030E040E050E0BC01CD010E9499115C
:10135000DC01CB018E0D9F1DA01FB11F89839A83D5
:10136000AB83BC838D819E81AF81B8852AE030E05C
:1013700040E050E0BC01CD010E949911DA01C901A1
:101380008D839E83AF83B8878D819E81AF81B88521
:101390000097A105B10511F623C089819A81AB811F
:1013A000BC812AE030E040E050E0BC01CD010E9469
:1013B0009911DC01CB01805D0E94AD0789819A8182
:1013C000AB81BC812AE030E040E050E0BC01CD01BF
:1013D0000E949911DA01C90189839A83AB83BC8386
:1013E00089819A81AB81BC8181309105A105B105CC
:1013F000A1F628960FB6F894DEBF0FBECDBFCF91F1
:10140000DF911F910F91FF90EF900895EF92FF925F
:101410000F931F93DF93CF93CDB7DEB7A7970FB688
:10142000F894DEBF0FBECDBF6CA37DA38EA39FA398
:101430001F861E866CA17DA18EA19FA10E944100E6
:10144000DC01CB018A879B87AC87BD878AE0FE01E0
:101450007096DF01982F1D929A95E9F780E090E051
:10146000A0E0B0E08E839F83A887B9876CA17DA19F
:101470008EA19FA120E030E040E050E00E941D04DA
:101480008823C4F48CA19DA1AEA1BFA1B0588CA3A8
:101490009DA3AEA3BFA36CA17DA18EA19FA10E941D
:1014A0004100DC01CB018A879B87AC87BD878DE239
:1014B0000E94AD076CA17DA18EA19FA120E030E02C
:1014C00040E85FE30E94EA01DC01CB017C018D0171
:1014D0006A857B858C859D850E94A1049B01AC015A
:1014E000C801B7010E94B901DC01CB01BC01CD01EB
:1014F00020E836E948E15BE40E941702DC01CB01F9
:101500008E839F83A887B9872FC08F85082F1127C7
:1015100007FD10958A859B85AC85BD852AE030E066
:1015200040E050E0BC01CD010E949911DC01CB01EB
:10153000282FCE014096FC01E00FF11F20838F85FC
:101540008F5F8F878A859B85AC85BD852AE030E0DB
:1015500040E050E0BC01CD010E949911DA01C901BF
:101560008A879B87AC87BD878A859B85AC85BD852F
:101570000097A105B10549F68F858D838F85815030
:101580008F8713C08F85282F332727FD3095CE01F5
:101590004096FC01E20FF31F8081982F905D8F85AC
:1015A00081508F87892F0E94AD078F85882354F73C
:1015B0008AE0FE017A96DF01982F1D929A95E9F74D
:1015C0001F866E817F81888599850E944100DC019C
:1015D000CB0189839A83AB83BC838EE20E94AD07E3
:1015E0002FC08F85082F112707FD109589819A81BB
:1015F000AB81BC812AE030E040E050E0BC01CD018D
:101600000E949911DC01CB01282FCE014A96FC01E2
:10161000E00FF11F20838F858F5F8F8789819A81EB
:10162000AB81BC812AE030E040E050E0BC01CD015C
:101630000E949911DA01C90189839A83AB83BC8323
:1016400089819A81AB81BC810097A105B10549F6DA
:101650008F8582508F871E861CC08E85282F33274A
:1016600027FD3095CE014A96FC01E20FF31F8081E1
:10167000882349F58E85282F332727FD3095CE0105
:101680004A96FC01E20FF31F8BE680838E858F5F05
:101690008E878E858A300CF316C08F85282F3327CE
:1016A00027FD3095CE014A96FC01E20FF31F8081A1
:1016B000982F905D8F8581508F87892F0E94AD076D
:1016C0008D818F5F8D838F85282F332727FD309560
:1016D000CE014A96FC01E20FF31F80818B3619F090
:1016E0008D818730D1F6A7960FB6F894DEBF0FBE76
:1016F000CDBFCF91DF911F910F91FF90EF90089593
:10170000DF93CF93CDB7DEB728970FB6F894DEBF3F
:101710000FBECDBF8A836B834C8319828B81883047
:1017200008F0F4C08C81882309F077C08A81282FC3
:1017300030E038872F838F8198858130910559F16A
:101740002F813885223031052CF48F8198850097C0
:1017500069F060C02F8138852230310589F18F8191
:1017600098858330910509F440C054C0ABE3B0E0E4
:10177000EBE3F0E08081482F8B81282F30E081E07F
:1017800090E0022E02C0880F991F0A94E2F780951C
:1017900084238C93BDC0A8E3B0E0E8E3F0E080814F
:1017A000482F8B81282F30E081E090E0022E02C08C
:1017B000880F991F0A94E2F7809584238C93A8C020
:1017C000A5E3B0E0E5E3F0E08081482F8B81282F8E
:1017D00030E081E090E0022E02C0880F991F0A9449
:1017E000E2F7809584238C9393C0A2E3B0E0E2E318
:1017F000F0E08081482F8B81282F30E081E090E05D
:10180000022E02C0880F991F0A94E2F78095842364
:101810008C937EC081E089837BC08C81813009F00C
:1018200072C08A81282F30E03E832D838D819E8176
:101830008130910549F12D813E81223031052CF412
:101840008D819E81009761F05BC02D813E812230A9
:10185000310571F18D819E8183309105E9F150C090
:10186000ABE3B0E0EBE3F0E08081482F8B81282FE1
:1018700030E081E090E0022E02C0880F991F0A94A8
:10188000E2F7842B8C9344C0A8E3B0E0E8E3F0E0F7
:101890008081482F8B81282F30E081E090E0022E5C
:1018A00002C0880F991F0A94E2F7842B8C9330C0F2
:1018B000A5E3B0E0E5E3F0E08081482F8B81282F9D
:1018C00030E081E090E0022E02C0880F991F0A9458
:1018D000E2F7842B8C931CC0A2E3B0E0E2E3F0E0DB
:1018E0008081482F8B81282F30E081E090E0022E0C
:1018F00002C0880F991F0A94E2F7842B8C9308C0CA
:1019000081E0898305C081E0898302C081E0898309
:10191000898128960FB6F894DEBF0FBECDBFCF9158
:10192000DF910895DF93CF9300D000D00F92CDB711
:10193000DEB78A836B8319828A81282F30E03D834A
:101940002C838C819D8181309105D1F02C813D814A
:10195000223031052CF48C819D81009761F01FC0ED
:101960002C813D812230310581F08C819D81833035
:10197000910581F014C0EBE3F0E08B81808311C00E
:10198000E8E3F0E08B8180830CC0E5E3F0E08B813D
:10199000808307C0E2E3F0E08B81808302C081E0B6
:1019A000898389810F900F900F900F900F90CF91A6
:1019B000DF910895DF93CF93CDB7DEB727970FB6AA
:1019C000F894DEBF0FBECDBF8A836B835D834C83EB
:1019D00019828C819D81009709F478C08B818830B1
:1019E00008F074C08A81282F30E03F832E834E8117
:1019F0005F814130510559F18E819F81823091057F
:101A000034F42E813F812115310569F05CC04E818F
:101A10005F814230510579F18E819F81833091053C
:101A200009F43DC050C0E9E3F0E08081282F30E0A8
:101A30008B81882F90E0A90102C0559547958A9522
:101A4000E2F7CA018170EC81FD81808341C0E6E349
:101A5000F0E08081282F30E08B81882F90E0A90171
:101A600002C0559547958A95E2F7CA018170EC81CD
:101A7000FD8180832DC0E3E3F0E08081282F30E0FA
:101A80008B81882F90E0A90102C0559547958A95D2
:101A9000E2F7CA018170EC81FD81808319C0E0E327
:101AA000F0E08081282F30E08B81882F90E0A90121
:101AB00002C0559547958A95E2F7CA018170EC817D
:101AC000FD81808305C081E0898302C081E0898334
:101AD000898127960FB6F894DEBF0FBECDBFCF9198
:101AE000DF910895DF93CF9300D000D00F92CDB750
:101AF000DEB78FEF8B831A825EC08A81882F90E0D9
:101B0000FC01E558FE4F908183E0692F40E00E9480
:101B1000800B19823DC08981882F90E0FC01E95833
:101B2000FE4F90819E012C5F3F4F83E0692FA901FA
:101B30000E94DA0C8C81882341F58981482F50E07E
:101B40008A81282F30E0CA01880F991F880F991FBA
:101B5000820F931FFC01E158FE4F80818B830FC0E1
:101B60008981882F90E0FC01E958FE4F90819E0109
:101B70002C5F3F4F83E0692FA9010E94DA0C8C8112
:101B8000882371F38B818D831CC089818F5F89834A
:101B90008981843008F4BFCF8A81882F90E0FC01CE
:101BA000E558FE4F908183E0692F41E00E94800B51
:101BB0008A818F5F8A838A81843008F49ECF8B81EB
:101BC0008D838D810F900F900F900F900F90CF917C
:101BD000DF910895DF93CF93CDB7DEB7EAE3F0E06E
:101BE0008FEF8083E7E3F0E01082E4E3F0E08FEF33
:101BF0008083E1E3F0E08FE08083EBE3F0E01082AC
:101C0000E8E3F0E01082E5E3F0E01082E2E3F0E0E8
:101C10008FEF8083CF91DF910895EF92FF920F9322
:101C20001F93DF93CF93CDB7DEB7A6970FB6F89487
:101C3000DEBF0FBECDBF188E1F8A1E8A1D8A1B8A6B
:101C40001A8A188A81E08F8785E0FE017996DF0184
:101C5000282F1D922A95E9F785E0FE017E96DF0187
:101C6000282F1D922A95E9F70E94EA0D0E944B0841
:101C700031C00E94720D8C8B8C898F3FD1F38C897F
:101C80008B3249F08C898D3231F08C898F3219F08A
:101C90008C898A3249F488898F5F888B8C890E946D
:101CA000AD078C89898B40C08C89882F90E0A0E09B
:101CB000B0E0BC01CD010E9468098B89282F30E07B
:101CC000CE014996FC01E20FF31F8C8980838B893A
:101CD0008F5F8B8B8889813061F626C00E94720DE0
:101CE0008C8B8C898F3FD1F38C898D3339F48F8520
:101CF00081508F878C890E94AD0719C08C89882FED
:101D000090E0A0E0B0E0BC01CD010E9468098A89A2
:101D1000282F30E0CE014E96FC01E20FF31F8C8994
:101D200080838A898F5F8A8B8F858823B9F68C8917
:101D3000833229F4188A1F8681E00E940F078C895C
:101D40008D3341F68B89482F50E05EA34DA36DA1E2
:101D50007EA16230710551F18DA19EA18330910564
:101D600054F4ADA1BEA11097C1F0EDA1FEA1E130E8
:101D7000F105B1F0CAC02DA13EA12430310509F40E
:101D80004EC04DA15EA1443051052CF16DA17EA144
:101D90006530710509F476C0B8C0188E1F8AB5C0C9
:101DA000898D882F90E0988F8F8BAFC0898D882F79
:101DB00090E09C01220F331FC901880F991F880FE3
:101DC000991F280F391F8A8D882F90E0820F931F4B
:101DD000988F8F8B9AC0898D282F30E084E690E011
:101DE000289FA001299F500D389F500D11248A8DE6
:101DF000882F90E09C01220F331FC901880F991F83
:101E0000880F991F820F931F9A01280F391F8B8DFE
:101E1000882F90E0820F931F988F8F8B76C0898DCB
:101E2000282F30E088EE93E0289FA001299F500DD5
:101E3000389F500D11248A8D282F30E084E690E0E1
:101E4000DC012A9FC0012B9F900D3A9F900D112419
:101E5000480F591F8B8D882F90E09C01220F331F54
:101E6000C901880F991F880F991F820F931F9A012C
:101E7000280F391F8C8D882F90E0820F931F988F29
:101E80008F8B43C0898D282F30E080E197E2289F17
:101E9000A001299F500D389F500D11248A8D282FA5
:101EA00030E088EE93E0FC012E9FC0012F9F900D43
:101EB0003E9F900D1124BA01680F791F8C8D882FD9
:101EC00090E09C01220F331FC901880F991F880FD2
:101ED000991FA901480F591F8B8D282F30E084E6E8
:101EE00090E0DC012A9FC0012B9F900D3A9F900D3E
:101EF0001124840F951F9B01280F391F8D8D882F6A
:101F000090E0820F931F988F8F8B8A89E82FF0E0E3
:101F1000FCA3EBA32BA13CA12230310559F14BA12D
:101F20005CA1433051055CF46BA17CA16115710586
:101F3000C1F08BA19CA181309105B1F0CAC0ABA1C9
:101F4000BCA1A430B10509F44EC0EBA1FCA1E43062
:101F5000F1052CF12BA13CA12530310509F476C007
:101F6000B8C01E8A1D8AB5C08E8D882F90E09E8BCA
:101F70008D8BAFC08E8D882F90E09C01220F331F78
:101F8000C901880F991F880F991F280F391F8F8D3E
:101F9000882F90E0820F931F9E8B8D8B9AC08E8D21
:101FA000282F30E084E690E0289FA001299F500D63
:101FB000389F500D11248F8D882F90E09C01220FA7
:101FC000331FC901880F991F880F991F820F931F14
:101FD0009A01280F391F88A1882F90E0820F931F44
:101FE0009E8B8D8B76C08E8D282F30E088EE93E00F
:101FF000289FA001299F500D389F500D11248F8DCF
:10200000282F30E084E690E0BC01269FC001279F86
:10201000900D369F900D1124480F591F88A1882FCD
:1020200090E09C01220F331FC901880F991F880F70
:10203000991F820F931F9A01280F391F89A1882F9A
:1020400090E0820F931F9E8B8D8B43C08E8D282F27
:1020500030E080E197E2289FA001299F500D389F32
:10206000500D11248F8D282F30E088EE93E0DC0195
:102070002A9FC0012B9F900D3A9F900D1124BA0109
:10208000680F791F89A1882F90E09C01220F331FD0
:10209000C901880F991F880F991FA901480F591F5F
:1020A00088A1282F30E084E690E0FC012E9FC0013B
:1020B0002F9F900D3E9F900D1124840F951F9B0123
:1020C000280F391F8AA1882F90E0820F931F9E8BC3
:1020D0008D8B89898B3271F42F89388D8D899E89FA
:1020E000820F931FCC01A0E0B0E0BC01CD010E94A3
:1020F0006809E9C089898D3281F42F89388D8D89ED
:102100009E89A901481B590BCA01CC01A0E0B0E08F
:10211000BC01CD010E946809D6C089898A32A1F428
:102120002F89388D8D899E89BC01269FC001279FEC
:10213000900D369F900D1124CC01A0E0B0E0BC01C1
:10214000CD010E946809BFC089898F3209F0BBC0E8
:102150008D899E890097D1F18F89988D2D893E892F
:10216000B9010E948511009781F48F89988D2D897E
:102170003E89B9010E948511CB01CC01A0E0B0E0FD
:10218000BC01CD010E9468099EC08F89988DCC0149
:10219000A0E0B0E0BC01CD010E94A1047B018C0154
:1021A0008D899E89CC01A0E0B0E0BC01CD010E94E8
:1021B000A1049B01AC01C801B7010E941103DC011D
:1021C000CB01BC01CD010E94060A7DC081E060E028
:1021D0000E94090980E690E00E94D90880E090E022
:1021E000AAEFB4E48B879C87AD87BE876B857C851F
:1021F0008D859E8520E030E04AEF54E40E9417026E
:10220000DC01CB018F839887A987BA876F81788596
:1022100089859A8520E030E040E85FE30E941D0454
:1022200088232CF481E090E09E838D833FC06F81F2
:10223000788589859A8520E03FEF4FE757E40E9433
:10224000BD0318164CF56B857C858D859E8520E039
:1022500030E040E251E40E941702DC01CB01BC01F6
:10226000CD010E944100DC01CB019E838D830FC014
:1022700088EC90E09C838B838B819C810197F1F7A4
:102280009C838B838D819E8101979E838D838D811D
:102290009E81009769F714C06F81788589859A853A
:1022A0000E944100DC01CB019E838D838D819E8144
:1022B0009A83898389819A810197F1F79A83898327
:1022C00081E00E940F078FEF8C8B04CD629FD001BD
:1022D000739FF001829FE00DF11D649FE00DF11DE1
:1022E000929FF00D839FF00D749FF00D659FF00D90
:1022F0009927729FB00DE11DF91F639FB00DE11D7D
:10230000F91FBD01CF0111240895AA1BBB1B51E188
:1023100007C0AA1FBB1FA617B70710F0A61BB70B55
:10232000881F991F5A95A9F780959095BC01CD01FA
:102330000895A1E21A2EAA1BBB1BFD010DC0AA1F06
:10234000BB1FEE1FFF1FA217B307E407F50720F01E
:10235000A21BB30BE40BF50B661F771F881F991F99
:102360001A9469F760957095809590959B01AC01E2
:10237000BD01CF0108952F923F924F925F926F92CD
:102380007F928F929F92AF92BF92CF92DF92EF9205
:10239000FF920F931F93CF93DF93CDB7DEB7CA1B86
:1023A000DB0B0FB6F894DEBF0FBECDBF09942A88B1
:1023B000398848885F846E847D848C849B84AA8459
:1023C000B984C884DF80EE80FD800C811B81AA81E6
:1023D000B981CE0FD11D0FB6F894DEBF0FBECDBFB1
:0823E000ED010895F894FFCF10
:1023E8004E4F20444956206279205A65726F00008A
:1023F80000000000000000000102020303030304C0
:10240800040404040404040505050505050505057B
:10241800050505050505050606060606060606065B
:102428000606060606060606060606060606060644
:10243800060606060606060707070707070707072B
:102448000707070707070707070707070707070714
:102458000707070707070707070707070707070704
:1024680007070707070707070707070707070707F4
:1024780007070707070707080808080808080808DB
:1024880008080808080808080808080808080808C4
:1024980008080808080808080808080808080808B4
:1024A80008080808080808080808080808080808A4
:1024B8000808080808080808080808080808080894
:1024C8000808080808080808080808080808080884
:1024D8000808080808080808080808080808080874
:1024E8000808080808080808080808080808080864
:1024F8000808080808080804050607000102030779
:1025080008092B0405062D0102032F23003D2A008C
:00000001FF
